{
  "contractName": "LandRegistry",
  "abi": [
    {
      "inputs": [
        {
          "internalType": "address",
          "name": "_gov",
          "type": "address"
        },
        {
          "internalType": "address",
          "name": "_bank",
          "type": "address"
        }
      ],
      "stateMutability": "nonpayable",
      "type": "constructor"
    },
    {
      "anonymous": false,
      "inputs": [
        {
          "indexed": false,
          "internalType": "uint256",
          "name": "landId",
          "type": "uint256"
        },
        {
          "indexed": false,
          "internalType": "address",
          "name": "filer",
          "type": "address"
        }
      ],
      "name": "DisputeFiled",
      "type": "event"
    },
    {
      "anonymous": false,
      "inputs": [
        {
          "indexed": false,
          "internalType": "uint256",
          "name": "landId",
          "type": "uint256"
        },
        {
          "indexed": false,
          "internalType": "address",
          "name": "rightfulOwner",
          "type": "address"
        }
      ],
      "name": "DisputeResolved",
      "type": "event"
    },
    {
      "anonymous": false,
      "inputs": [
        {
          "indexed": false,
          "internalType": "uint256",
          "name": "landId",
          "type": "uint256"
        },
        {
          "indexed": false,
          "internalType": "address",
          "name": "buyer",
          "type": "address"
        },
        {
          "indexed": false,
          "internalType": "uint256",
          "name": "price",
          "type": "uint256"
        }
      ],
      "name": "LandBought",
      "type": "event"
    },
    {
      "anonymous": false,
      "inputs": [
        {
          "indexed": false,
          "internalType": "uint256",
          "name": "landId",
          "type": "uint256"
        },
        {
          "indexed": false,
          "internalType": "address",
          "name": "owner",
          "type": "address"
        }
      ],
      "name": "LandRegistered",
      "type": "event"
    },
    {
      "anonymous": false,
      "inputs": [
        {
          "indexed": false,
          "internalType": "uint256",
          "name": "landId",
          "type": "uint256"
        },
        {
          "indexed": false,
          "internalType": "address",
          "name": "bank",
          "type": "address"
        }
      ],
      "name": "LienAdded",
      "type": "event"
    },
    {
      "anonymous": false,
      "inputs": [
        {
          "indexed": false,
          "internalType": "uint256",
          "name": "landId",
          "type": "uint256"
        }
      ],
      "name": "LienRemoved",
      "type": "event"
    },
    {
      "anonymous": false,
      "inputs": [
        {
          "indexed": false,
          "internalType": "uint256",
          "name": "landId",
          "type": "uint256"
        },
        {
          "indexed": false,
          "internalType": "uint256",
          "name": "price",
          "type": "uint256"
        }
      ],
      "name": "ListedForSale",
      "type": "event"
    },
    {
      "anonymous": false,
      "inputs": [
        {
          "indexed": false,
          "internalType": "uint256",
          "name": "landId",
          "type": "uint256"
        },
        {
          "indexed": false,
          "internalType": "address",
          "name": "from",
          "type": "address"
        },
        {
          "indexed": false,
          "internalType": "address",
          "name": "to",
          "type": "address"
        }
      ],
      "name": "OwnershipTransferred",
      "type": "event"
    },
    {
      "anonymous": false,
      "inputs": [
        {
          "indexed": false,
          "internalType": "uint256",
          "name": "landId",
          "type": "uint256"
        }
      ],
      "name": "SaleCancelled",
      "type": "event"
    },
    {
      "inputs": [],
      "name": "bank",
      "outputs": [
        {
          "internalType": "address",
          "name": "",
          "type": "address"
        }
      ],
      "stateMutability": "view",
      "type": "function"
    },
    {
      "inputs": [
        {
          "internalType": "uint256",
          "name": "",
          "type": "uint256"
        }
      ],
      "name": "disputes",
      "outputs": [
        {
          "internalType": "address",
          "name": "filer",
          "type": "address"
        },
        {
          "internalType": "string",
          "name": "evidenceHash",
          "type": "string"
        },
        {
          "internalType": "uint256",
          "name": "filedAt",
          "type": "uint256"
        },
        {
          "internalType": "bool",
          "name": "resolved",
          "type": "bool"
        },
        {
          "internalType": "string",
          "name": "resolution",
          "type": "string"
        }
      ],
      "stateMutability": "view",
      "type": "function"
    },
    {
      "inputs": [],
      "name": "government",
      "outputs": [
        {
          "internalType": "address",
          "name": "",
          "type": "address"
        }
      ],
      "stateMutability": "view",
      "type": "function"
    },
    {
      "inputs": [
        {
          "internalType": "uint256",
          "name": "",
          "type": "uint256"
        },
        {
          "internalType": "uint256",
          "name": "",
          "type": "uint256"
        }
      ],
      "name": "history",
      "outputs": [
        {
          "internalType": "address",
          "name": "previousOwner",
          "type": "address"
        },
        {
          "internalType": "address",
          "name": "newOwner",
          "type": "address"
        },
        {
          "internalType": "uint256",
          "name": "price",
          "type": "uint256"
        },
        {
          "internalType": "uint256",
          "name": "timestamp",
          "type": "uint256"
        }
      ],
      "stateMutability": "view",
      "type": "function"
    },
    {
      "inputs": [
        {
          "internalType": "uint256",
          "name": "",
          "type": "uint256"
        }
      ],
      "name": "lands",
      "outputs": [
        {
          "internalType": "uint256",
          "name": "landId",
          "type": "uint256"
        },
        {
          "internalType": "address",
          "name": "owner",
          "type": "address"
        },
        {
          "internalType": "string",
          "name": "gpsCoordinates",
          "type": "string"
        },
        {
          "internalType": "uint256",
          "name": "areaSqMeters",
          "type": "uint256"
        },
        {
          "internalType": "string",
          "name": "documentHash",
          "type": "string"
        },
        {
          "internalType": "bool",
          "name": "isRegistered",
          "type": "bool"
        },
        {
          "internalType": "bool",
          "name": "isForSale",
          "type": "bool"
        },
        {
          "internalType": "uint256",
          "name": "salePrice",
          "type": "uint256"
        },
        {
          "internalType": "bool",
          "name": "hasLien",
          "type": "bool"
        },
        {
          "internalType": "bool",
          "name": "isDisputed",
          "type": "bool"
        },
        {
          "internalType": "uint256",
          "name": "registeredAt",
          "type": "uint256"
        }
      ],
      "stateMutability": "view",
      "type": "function"
    },
    {
      "inputs": [
        {
          "internalType": "uint256",
          "name": "",
          "type": "uint256"
        }
      ],
      "name": "lienHolder",
      "outputs": [
        {
          "internalType": "address",
          "name": "",
          "type": "address"
        }
      ],
      "stateMutability": "view",
      "type": "function"
    },
    {
      "inputs": [
        {
          "internalType": "uint256",
          "name": "landId",
          "type": "uint256"
        },
        {
          "internalType": "address",
          "name": "_owner",
          "type": "address"
        },
        {
          "internalType": "string",
          "name": "gpsCoordinates",
          "type": "string"
        },
        {
          "internalType": "uint256",
          "name": "areaSqMeters",
          "type": "uint256"
        },
        {
          "internalType": "string",
          "name": "documentHash",
          "type": "string"
        }
      ],
      "name": "registerLand",
      "outputs": [],
      "stateMutability": "nonpayable",
      "type": "function"
    },
    {
      "inputs": [
        {
          "internalType": "uint256",
          "name": "landId",
          "type": "uint256"
        }
      ],
      "name": "getLandDetails",
      "outputs": [
        {
          "components": [
            {
              "internalType": "uint256",
              "name": "landId",
              "type": "uint256"
            },
            {
              "internalType": "address",
              "name": "owner",
              "type": "address"
            },
            {
              "internalType": "string",
              "name": "gpsCoordinates",
              "type": "string"
            },
            {
              "internalType": "uint256",
              "name": "areaSqMeters",
              "type": "uint256"
            },
            {
              "internalType": "string",
              "name": "documentHash",
              "type": "string"
            },
            {
              "internalType": "bool",
              "name": "isRegistered",
              "type": "bool"
            },
            {
              "internalType": "bool",
              "name": "isForSale",
              "type": "bool"
            },
            {
              "internalType": "uint256",
              "name": "salePrice",
              "type": "uint256"
            },
            {
              "internalType": "bool",
              "name": "hasLien",
              "type": "bool"
            },
            {
              "internalType": "bool",
              "name": "isDisputed",
              "type": "bool"
            },
            {
              "internalType": "uint256",
              "name": "registeredAt",
              "type": "uint256"
            }
          ],
          "internalType": "struct LandRegistry.LandParcel",
          "name": "",
          "type": "tuple"
        }
      ],
      "stateMutability": "view",
      "type": "function"
    },
    {
      "inputs": [
        {
          "internalType": "uint256",
          "name": "landId",
          "type": "uint256"
        },
        {
          "internalType": "uint256",
          "name": "price",
          "type": "uint256"
        }
      ],
      "name": "listForSale",
      "outputs": [],
      "stateMutability": "nonpayable",
      "type": "function"
    },
    {
      "inputs": [
        {
          "internalType": "uint256",
          "name": "landId",
          "type": "uint256"
        }
      ],
      "name": "cancelListing",
      "outputs": [],
      "stateMutability": "nonpayable",
      "type": "function"
    },
    {
      "inputs": [
        {
          "internalType": "uint256",
          "name": "landId",
          "type": "uint256"
        }
      ],
      "name": "buyLand",
      "outputs": [],
      "stateMutability": "payable",
      "type": "function"
    },
    {
      "inputs": [
        {
          "internalType": "uint256",
          "name": "landId",
          "type": "uint256"
        }
      ],
      "name": "getLandHistory",
      "outputs": [
        {
          "components": [
            {
              "internalType": "address",
              "name": "previousOwner",
              "type": "address"
            },
            {
              "internalType": "address",
              "name": "newOwner",
              "type": "address"
            },
            {
              "internalType": "uint256",
              "name": "price",
              "type": "uint256"
            },
            {
              "internalType": "uint256",
              "name": "timestamp",
              "type": "uint256"
            }
          ],
          "internalType": "struct LandRegistry.OwnershipRecord[]",
          "name": "",
          "type": "tuple[]"
        }
      ],
      "stateMutability": "view",
      "type": "function"
    },
    {
      "inputs": [
        {
          "internalType": "uint256",
          "name": "landId",
          "type": "uint256"
        }
      ],
      "name": "verifyLand",
      "outputs": [
        {
          "internalType": "bool",
          "name": "isRegistered",
          "type": "bool"
        },
        {
          "internalType": "bool",
          "name": "hasCleanTitle",
          "type": "bool"
        },
        {
          "internalType": "address",
          "name": "currentOwner",
          "type": "address"
        },
        {
          "internalType": "uint256",
          "name": "totalTransfers",
          "type": "uint256"
        },
        {
          "internalType": "string",
          "name": "status",
          "type": "string"
        }
      ],
      "stateMutability": "view",
      "type": "function"
    },
    {
      "inputs": [
        {
          "internalType": "uint256",
          "name": "landId",
          "type": "uint256"
        }
      ],
      "name": "addLien",
      "outputs": [],
      "stateMutability": "nonpayable",
      "type": "function"
    },
    {
      "inputs": [
        {
          "internalType": "uint256",
          "name": "landId",
          "type": "uint256"
        }
      ],
      "name": "removeLien",
      "outputs": [],
      "stateMutability": "nonpayable",
      "type": "function"
    },
    {
      "inputs": [
        {
          "internalType": "uint256",
          "name": "landId",
          "type": "uint256"
        },
        {
          "internalType": "string",
          "name": "evidenceHash",
          "type": "string"
        }
      ],
      "name": "fileDispute",
      "outputs": [],
      "stateMutability": "nonpayable",
      "type": "function"
    },
    {
      "inputs": [
        {
          "internalType": "uint256",
          "name": "landId",
          "type": "uint256"
        },
        {
          "internalType": "address",
          "name": "rightfulOwner",
          "type": "address"
        },
        {
          "internalType": "string",
          "name": "resolutionNotes",
          "type": "string"
        }
      ],
      "name": "resolveDispute",
      "outputs": [],
      "stateMutability": "nonpayable",
      "type": "function"
    },
    {
      "inputs": [
        {
          "internalType": "uint256",
          "name": "landId",
          "type": "uint256"
        }
      ],
      "name": "getDispute",
      "outputs": [
        {
          "components": [
            {
              "internalType": "address",
              "name": "filer",
              "type": "address"
            },
            {
              "internalType": "string",
              "name": "evidenceHash",
              "type": "string"
            },
            {
              "internalType": "uint256",
              "name": "filedAt",
              "type": "uint256"
            },
            {
              "internalType": "bool",
              "name": "resolved",
              "type": "bool"
            },
            {
              "internalType": "string",
              "name": "resolution",
              "type": "string"
            }
          ],
          "internalType": "struct LandRegistry.Dispute",
          "name": "",
          "type": "tuple"
        }
      ],
      "stateMutability": "view",
      "type": "function"
    }
  ],
  "bytecode": "0x608060405234801562000010575f80fd5b5060405162002af238038062002af2833981016040819052620000339162000139565b60015f556001600160a01b038216620000935760405162461bcd60e51b815260206004820152601a60248201527f496e76616c696420676f7665726e6d656e74206164647265737300000000000060448201526064015b60405180910390fd5b6001600160a01b038116620000eb5760405162461bcd60e51b815260206004820152601460248201527f496e76616c69642062616e6b206164647265737300000000000000000000000060448201526064016200008a565b600180546001600160a01b039384166001600160a01b031991821617909155600280549290931691161790556200016f565b80516001600160a01b038116811462000134575f80fd5b919050565b5f80604083850312156200014b575f80fd5b62000156836200011d565b915062000166602084016200011d565b90509250929050565b612975806200017d5f395ff3fe608060405260043610610105575f3560e01c8063adb6058c11610092578063e3a96cbd11610062578063e3a96cbd14610324578063e80a255d14610350578063e80d7fec1461036f578063f9c43bdf1461038e578063fe0cb7dc146103be575f80fd5b8063adb6058c1461029d578063b31aa44f146102bc578063ced39558146102db578063e261f1e5146102ee575f80fd5b8063564a565d116100d8578063564a565d146101c657806371d9e19e146101f657806376cdb03b146102405780638243af1d1461025f5780638c6a3d841461027e575f80fd5b80631ee439f5146101095780632672f5261461015a578063305a67a8146101795780634f3897211461019a575b5f80fd5b348015610114575f80fd5b5061013d6101233660046122af565b60056020525f90815260409020546001600160a01b031681565b6040516001600160a01b0390911681526020015b60405180910390f35b348015610165575f80fd5b5060015461013d906001600160a01b031681565b348015610184575f80fd5b506101986101933660046122af565b6103ea565b005b3480156101a5575f80fd5b506101b96101b43660046122af565b61054b565b60405161015191906122c6565b3480156101d1575f80fd5b506101e56101e03660046122af565b610616565b604051610151959493929190612378565b348015610201575f80fd5b506102156102103660046123c7565b610762565b604080516001600160a01b039586168152949093166020850152918301526060820152608001610151565b34801561024b575f80fd5b5060025461013d906001600160a01b031681565b34801561026a575f80fd5b50610198610279366004612484565b6107b0565b348015610289575f80fd5b506101986102983660046122af565b610956565b3480156102a8575f80fd5b506101986102b73660046122af565b610b2a565b3480156102c7575f80fd5b506101986102d63660046124e3565b610cdc565b6101986102e93660046122af565b610fcf565b3480156102f9575f80fd5b5061030d6103083660046122af565b611370565b6040516101519b9a99989796959493929190612536565b34801561032f575f80fd5b5061034361033e3660046122af565b6114e3565b60405161015191906125b5565b34801561035b575f80fd5b5061019861036a36600461261e565b6116ae565b34801561037a575f80fd5b506101986103893660046123c7565b611a4f565b348015610399575f80fd5b506103ad6103a83660046122af565b611cca565b6040516101519594939291906126a0565b3480156103c9575f80fd5b506103dd6103d83660046122af565b612005565b60405161015191906126e1565b5f81815260036020526040902060050154819060ff166104255760405162461bcd60e51b815260040161041c906127b8565b60405180910390fd5b5f8281526003602052604090206001015482906001600160a01b031633146104875760405162461bcd60e51b81526020600482015260156024820152742cb7ba9030b932903737ba103a34329037bbb732b960591b604482015260640161041c565b5f83815260036020526040902060050154610100900460ff166104ec5760405162461bcd60e51b815260206004820152601b60248201527f4c616e64206973206e6f74206c697374656420666f722073616c650000000000604482015260640161041c565b5f8381526003602052604080822060058101805461ff001916905560060191909155517f2c56893f6f6026d19bd17b7d05c9f15c522de1ae2b1c3a825f91a73c799321f29061053e9085815260200190565b60405180910390a1505050565b5f81815260036020526040902060050154606090829060ff166105805760405162461bcd60e51b815260040161041c906127b8565b5f83815260046020908152604080832080548251818502810185019093528083529193909284015b82821015610609575f848152602090819020604080516080810182526004860290920180546001600160a01b0390811684526001808301549091168486015260028201549284019290925260030154606083015290835290920191016105a8565b5050505091505b50919050565b60066020525f9081526040902080546001820180546001600160a01b039092169291610641906127e0565b80601f016020809104026020016040519081016040528092919081815260200182805461066d906127e0565b80156106b85780601f1061068f576101008083540402835291602001916106b8565b820191905f5260205f20905b81548152906001019060200180831161069b57829003601f168201915b50505050600283015460038401546004850180549495929460ff9092169350906106e1906127e0565b80601f016020809104026020016040519081016040528092919081815260200182805461070d906127e0565b80156107585780601f1061072f57610100808354040283529160200191610758565b820191905f5260205f20905b81548152906001019060200180831161073b57829003601f168201915b5050505050905085565b6004602052815f5260405f20818154811061077b575f80fd5b5f91825260209091206004909102018054600182015460028301546003909301546001600160a01b0392831695509116925084565b5f82815260036020526040902060050154829060ff166107e25760405162461bcd60e51b815260040161041c906127b8565b5f83815260036020526040902060070154610100900460ff16156108545760405162461bcd60e51b815260206004820152602360248201527f4469737075746520616c726561647920616374697665206f6e2074686973206c604482015262185b9960ea1b606482015260840161041c565b5f83815260036020908152604080832060078101805461010061ff001991821617909155600590910180549091169055805160a08101825233815280830186815242828401526060820185905282518085018452858152608083015287855260069093529220825181546001600160a01b0319166001600160a01b03909116178155905160018201906108e79082612860565b5060408201516002820155606082015160038201805460ff19169115159190911790556080820151600482019061091e9082612860565b5050604080518581523360208201527f72a6353d77b5bd8b598b7c1cf4e05f46b3bd0ae3879bd711817e21189b4be37a92500161053e565b6002546001600160a01b031633146109a85760405162461bcd60e51b81526020600482015260156024820152744f6e6c792062616e6b2063616e20646f207468697360581b604482015260640161041c565b5f81815260036020526040902060050154819060ff166109da5760405162461bcd60e51b815260040161041c906127b8565b5f8281526003602052604090206007015460ff1615610a3b5760405162461bcd60e51b815260206004820181905260248201527f4c69656e20616c726561647920616374697665206f6e2074686973206c616e64604482015260640161041c565b5f82815260036020526040902060070154610100900460ff1615610aab5760405162461bcd60e51b815260206004820152602160248201527f43616e6e6f7420616464206c69656e3a206c616e6420697320646973707574656044820152601960fa1b606482015260840161041c565b5f82815260036020908152604080832060078101805460ff191660011790556005908101805461ff001916905582529182902080546001600160a01b031916339081179091558251858152918201527fb96bd4d760ac16ae5900ede98def25468d2bbd36d47f1c7fb0289faabf32a86291015b60405180910390a15050565b6002546001600160a01b03163314610b7c5760405162461bcd60e51b81526020600482015260156024820152744f6e6c792062616e6b2063616e20646f207468697360581b604482015260640161041c565b5f81815260036020526040902060050154819060ff16610bae5760405162461bcd60e51b815260040161041c906127b8565b5f8281526003602052604090206007015460ff16610c0e5760405162461bcd60e51b815260206004820152601b60248201527f4e6f20616374697665206c69656e206f6e2074686973206c616e640000000000604482015260640161041c565b5f828152600560205260409020546001600160a01b03163314610c7e5760405162461bcd60e51b815260206004820152602260248201527f4f6e6c7920746865206c69656e20686f6c6465722063616e2072656d6f7665206044820152611a5d60f21b606482015260840161041c565b5f828152600360209081526040808320600701805460ff19169055600582529182902080546001600160a01b031916905590518381527f0bb557c0608539779044f3ce0a2a9dbb5dbcdb52b399dd788d05e20b9f7f60f19101610b1e565b6001546001600160a01b03163314610d365760405162461bcd60e51b815260206004820152601b60248201527f4f6e6c7920676f7665726e6d656e742063616e20646f20746869730000000000604482015260640161041c565b5f83815260036020526040902060050154839060ff16610d685760405162461bcd60e51b815260040161041c906127b8565b5f84815260036020526040902060070154610100900460ff16610dcd5760405162461bcd60e51b815260206004820152601e60248201527f4e6f206163746976652064697370757465206f6e2074686973206c616e640000604482015260640161041c565b6001600160a01b038316610e235760405162461bcd60e51b815260206004820152601e60248201527f496e76616c696420726967687466756c206f776e657220616464726573730000604482015260640161041c565b5f848152600360205260409020600101546001600160a01b03848116911614610f47575f84815260036020818152604080842060019081018054600480865284882085516080810187526001600160a01b039384168082528d8516828a01818152838a018d815242606086019081528654808c018855968f528c8f2095519690970290940180549588166001600160a01b031996871617815590519881018054999097169885169890981790955590516002870155915194880194909455968b9052949093528254169092179055517f16b85f49bf01212961345d3016c9a531894accf62eb7680f2045d79185cc0ec090610f3d908790849088909283526001600160a01b03918216602084015216604082015260600190565b60405180910390a1505b5f848152600360208181526040808420600701805461ff00191690556006909152909120908101805460ff19166001179055600401610f868382612860565b50604080518581526001600160a01b03851660208201527ff77ceb5e091d2da041bc760667f9d5fe7a756949eaf29250ad0e60ca6f4c27d991015b60405180910390a150505050565b610fd7612258565b5f81815260036020526040902060050154819060ff166110095760405162461bcd60e51b815260040161041c906127b8565b5f8281526003602052604090206005810154610100900460ff166110665760405162461bcd60e51b81526020600482015260146024820152734c616e64206973206e6f7420666f722073616c6560601b604482015260640161041c565b80600601543410156110b25760405162461bcd60e51b81526020600482015260156024820152740a0c2f2dacadce840d2e640dcdee840cadcdeeaced605b1b604482015260640161041c565b60018101546001600160a01b0316330361110e5760405162461bcd60e51b815260206004820152601960248201527f596f7520616c7265616479206f776e2074686973206c616e6400000000000000604482015260640161041c565b6007810154610100900460ff16156111685760405162461bcd60e51b815260206004820152601c60248201527f4c616e6420697320756e64657220616374697665206469737075746500000000604482015260640161041c565b5f816001015f9054906101000a90046001600160a01b0316905060045f8581526020019081526020015f206040518060800160405280836001600160a01b03168152602001336001600160a01b0316815260200134815260200142815250908060018154018082558091505060019003905f5260205f2090600402015f909190919091505f820151815f015f6101000a8154816001600160a01b0302191690836001600160a01b031602179055506020820151816001015f6101000a8154816001600160a01b0302191690836001600160a01b031602179055506040820151816002015560608201518160030155505033826001015f6101000a8154816001600160a01b0302191690836001600160a01b031602179055505f8260050160016101000a81548160ff0219169083151502179055505f8260060181905550806001600160a01b03166108fc3490811502906040515f60405180830381858888f193505050501580156112db573d5f803e3d5ffd5b5060408051858152336020820152348183015290517ff240bec15fb695f4a5d675ef66f2bf676a48b0068617c8718d7d6bbcc8adaf279181900360600190a1604080518581526001600160a01b0383166020820152338183015290517f16b85f49bf01212961345d3016c9a531894accf62eb7680f2045d79185cc0ec09181900360600190a150505061136d60015f55565b50565b60036020525f908152604090208054600182015460028301805492936001600160a01b03909216926113a1906127e0565b80601f01602080910402602001604051908101604052809291908181526020018280546113cd906127e0565b80156114185780601f106113ef57610100808354040283529160200191611418565b820191905f5260205f20905b8154815290600101906020018083116113fb57829003601f168201915b505050505090806003015490806004018054611433906127e0565b80601f016020809104026020016040519081016040528092919081815260200182805461145f906127e0565b80156114aa5780601f10611481576101008083540402835291602001916114aa565b820191905f5260205f20905b81548152906001019060200180831161148d57829003601f168201915b50505050600583015460068401546007850154600890950154939460ff808416956101009485900482169550929381831693920416908b565b6040805160a0810182525f8082526060602083018190529282018190528282015260808101919091525f82815260036020526040902060050154829060ff1661153e5760405162461bcd60e51b815260040161041c906127b8565b5f83815260066020908152604091829020825160a0810190935280546001600160a01b031683526001810180549192840191611579906127e0565b80601f01602080910402602001604051908101604052809291908181526020018280546115a5906127e0565b80156115f05780601f106115c7576101008083540402835291602001916115f0565b820191905f5260205f20905b8154815290600101906020018083116115d357829003601f168201915b505050918352505060028201546020820152600382015460ff1615156040820152600482018054606090920191611626906127e0565b80601f0160208091040260200160405190810160405280929190818152602001828054611652906127e0565b801561169d5780601f106116745761010080835404028352916020019161169d565b820191905f5260205f20905b81548152906001019060200180831161168057829003601f168201915b505050505081525050915050919050565b6001546001600160a01b031633146117085760405162461bcd60e51b815260206004820152601b60248201527f4f6e6c7920676f7665726e6d656e742063616e20646f20746869730000000000604482015260640161041c565b5f8581526003602052604090206005015460ff16156117695760405162461bcd60e51b815260206004820152601760248201527f4c616e6420616c72656164792072656769737465726564000000000000000000604482015260640161041c565b6001600160a01b0384166117b75760405162461bcd60e51b8152602060048201526015602482015274496e76616c6964206f776e6572206164647265737360581b604482015260640161041c565b5f82116118065760405162461bcd60e51b815260206004820152601b60248201527f41726561206d7573742062652067726561746572207468616e20300000000000604482015260640161041c565b5f8351116118565760405162461bcd60e51b815260206004820152601860248201527f47505320636f6f7264696e617465732072657175697265640000000000000000604482015260640161041c565b60408051610160810182528681526001600160a01b0386811660208084019182528385018881526060850188905260808501879052600160a086018190525f60c0870181905260e0870181905261010087018190526101208701819052426101408801528c815260039093529590912084518155915194820180546001600160a01b0319169590931694909417909155915190919060028201906118fa9082612860565b5060608201516003820155608082015160048201906119199082612860565b5060a082015160058201805460c0850151151561010090810261ff0019941515851661ffff19938416171790925560e085015160068501558185015160078501805461012088015115159094029115159094169290911691909117179055610140909101516008909101555f85815260046020818152604080842081516080810183528581526001600160a01b038a81168286018181528386018981524260608601908152865460018181018955978c529a89902095519a90990290940180549984166001600160a01b03199a8b1617815590519481018054959093169490981693909317905551600286015592516003909401939093558251888152908101919091527fcb4990052f95f6057496d19524f6c3163f50af9f33f2c15b092928e03414323e910160405180910390a15050505050565b5f82815260036020526040902060050154829060ff16611a815760405162461bcd60e51b815260040161041c906127b8565b5f8381526003602052604090206001015483906001600160a01b03163314611ae35760405162461bcd60e51b81526020600482015260156024820152742cb7ba9030b932903737ba103a34329037bbb732b960591b604482015260640161041c565b5f84815260036020526040902060070154610100900460ff1615611b495760405162461bcd60e51b815260206004820152601d60248201527f43616e6e6f74206c6973743a206c616e64206973206469737075746564000000604482015260640161041c565b5f8481526003602052604090206007015460ff1615611bb65760405162461bcd60e51b815260206004820152602360248201527f43616e6e6f74206c6973743a20616374697665206d6f7274676167652065786960448201526273747360e81b606482015260840161041c565b5f84815260036020526040902060050154610100900460ff1615611c1c5760405162461bcd60e51b815260206004820152601760248201527f416c7265616479206c697374656420666f722073616c65000000000000000000604482015260640161041c565b5f8311611c6b5760405162461bcd60e51b815260206004820152601c60248201527f5072696365206d7573742062652067726561746572207468616e203000000000604482015260640161041c565b5f848152600360205260409081902060058101805461ff001916610100179055600601849055517f27aebf2e0e5cf25f00bd3797d26b69f66ac7ccb85a55702906e672e9cb7d1c2590610fc19086908690918252602082015260400190565b5f8181526003602052604081206005015481908190819060609060ff16611d2257505060408051808201909152600e81526d1393d508149151d254d51154915160921b60208201525f93508392508291508190611ffc565b5f8681526003602090815260408083208151610160810183528154815260018201546001600160a01b0316938101939093526002810180549192840191611d68906127e0565b80601f0160208091040260200160405190810160405280929190818152602001828054611d94906127e0565b8015611ddf5780601f10611db657610100808354040283529160200191611ddf565b820191905f5260205f20905b815481529060010190602001808311611dc257829003601f168201915b5050505050815260200160038201548152602001600482018054611e02906127e0565b80601f0160208091040260200160405190810160405280929190818152602001828054611e2e906127e0565b8015611e795780601f10611e5057610100808354040283529160200191611e79565b820191905f5260205f20905b815481529060010190602001808311611e5c57829003601f168201915b5050509183525050600582015460ff80821615156020840152610100918290048116151560408401526006840154606084015260078401548082161515608085015282900416151560a083015260089092015460c0909101528101519091505f90158015611eea5750816101200151155b9050606082610120015115611f33575060408051808201909152601a81527f4449535055544544202d20444f204e4f54205452414e534143540000000000006020820152611fd8565b82610100015115611f78575060408051808201909152601c81527f454e43554d4245524544202d204d4f52544741474520414354495645000000006020820152611fd8565b8260c0015115611fa25760405180606001604052806023815260200161291d602391399050611fd8565b5060408051808201909152601881527f52454749535445524544202d20434c45414e205449544c45000000000000000060208201525b6020928301515f8a8152600490945260409093205460019850919650919450925090505b91939590929450565b61206a6040518061016001604052805f81526020015f6001600160a01b03168152602001606081526020015f8152602001606081526020015f151581526020015f151581526020015f81526020015f151581526020015f151581526020015f81525090565b5f82815260036020526040902060050154829060ff1661209c5760405162461bcd60e51b815260040161041c906127b8565b5f838152600360209081526040918290208251610160810184528154815260018201546001600160a01b03169281019290925260028101805492939192918401916120e6906127e0565b80601f0160208091040260200160405190810160405280929190818152602001828054612112906127e0565b801561215d5780601f106121345761010080835404028352916020019161215d565b820191905f5260205f20905b81548152906001019060200180831161214057829003601f168201915b5050505050815260200160038201548152602001600482018054612180906127e0565b80601f01602080910402602001604051908101604052809291908181526020018280546121ac906127e0565b80156121f75780601f106121ce576101008083540402835291602001916121f7565b820191905f5260205f20905b8154815290600101906020018083116121da57829003601f168201915b5050509183525050600582015460ff8082161515602084015261010091829004811615156040840152600684015460608401526007840154808216151560808501529190910416151560a082015260089091015460c0909101529392505050565b60025f54036122a95760405162461bcd60e51b815260206004820152601f60248201527f5265656e7472616e637947756172643a207265656e7472616e742063616c6c00604482015260640161041c565b60025f55565b5f602082840312156122bf575f80fd5b5035919050565b602080825282518282018190525f919060409081850190868401855b8281101561232857815180516001600160a01b039081168652878201511687860152858101518686015260609081015190850152608090930192908501906001016122e2565b5091979650505050505050565b5f81518084525f5b818110156123595760208185018101518683018201520161233d565b505f602082860101526020601f19601f83011685010191505092915050565b6001600160a01b038616815260a0602082018190525f9061239b90830187612335565b856040840152841515606084015282810360808401526123bb8185612335565b98975050505050505050565b5f80604083850312156123d8575f80fd5b50508035926020909101359150565b634e487b7160e01b5f52604160045260245ffd5b5f82601f83011261240a575f80fd5b813567ffffffffffffffff80821115612425576124256123e7565b604051601f8301601f19908116603f0116810190828211818310171561244d5761244d6123e7565b81604052838152866020858801011115612465575f80fd5b836020870160208301375f602085830101528094505050505092915050565b5f8060408385031215612495575f80fd5b82359150602083013567ffffffffffffffff8111156124b2575f80fd5b6124be858286016123fb565b9150509250929050565b80356001600160a01b03811681146124de575f80fd5b919050565b5f805f606084860312156124f5575f80fd5b83359250612505602085016124c8565b9150604084013567ffffffffffffffff811115612520575f80fd5b61252c868287016123fb565b9150509250925092565b8b81526001600160a01b038b166020820152610160604082018190525f906125608382018d612335565b90508a6060840152828103608084015261257a818b612335565b98151560a0840152505094151560c086015260e085019390935290151561010084015215156101208301526101409091015295945050505050565b602080825282516001600160a01b03168282015282015160a060408301525f906125e260c0840182612335565b9050604084015160608401526060840151151560808401526080840151601f198483030160a08501526126158282612335565b95945050505050565b5f805f805f60a08688031215612632575f80fd5b85359450612642602087016124c8565b9350604086013567ffffffffffffffff8082111561265e575f80fd5b61266a89838a016123fb565b9450606088013593506080880135915080821115612686575f80fd5b50612693888289016123fb565b9150509295509295909350565b8515158152841515602082015260018060a01b038416604082015282606082015260a060808201525f6126d660a0830184612335565b979650505050505050565b60208152815160208201525f602083015161270760408401826001600160a01b03169052565b506040830151610160806060850152612724610180850183612335565b9150606085015160808501526080850151601f198584030160a086015261274b8382612335565b92505060a085015161276160c086018215159052565b5060c085015180151560e08601525060e0850151610100858101919091528501516101206127928187018315159052565b86015190506101406127a78682018315159052565b959095015193019290925250919050565b6020808252600e908201526d13185b99081b9bdd08199bdd5b9960921b604082015260600190565b600181811c908216806127f457607f821691505b60208210810361061057634e487b7160e01b5f52602260045260245ffd5b601f82111561285b575f81815260208120601f850160051c810160208610156128385750805b601f850160051c820191505b8181101561285757828155600101612844565b5050505b505050565b815167ffffffffffffffff81111561287a5761287a6123e7565b61288e8161288884546127e0565b84612812565b602080601f8311600181146128c1575f84156128aa5750858301515b5f19600386901b1c1916600185901b178555612857565b5f85815260208120601f198616915b828110156128ef578886015182559484019460019091019084016128d0565b508582101561290c57878501515f19600388901b60f8161c191681555b5050505050600190811b0190555056fe52454749535445524544202d20434c45414e205449544c45202d20464f522053414c45a2646970667358221220fdfe44db4a9a49c88fe097c2108644d1a6d09c0f0bafbf775654e6f7a9a1134164736f6c63430008140033",
  "immutableReferences": {},
  "source": "// SPDX-License-Identifier: MIT\r\npragma solidity ^0.8.20;\r\n\r\nimport \"@openzeppelin/contracts/security/ReentrancyGuard.sol\";\r\n\r\ncontract LandRegistry is ReentrancyGuard {\r\n\r\n    // ════════════════════════════════════════════════════════\r\n    // STRUCTS\r\n    // ════════════════════════════════════════════════════════\r\n\r\n    struct LandParcel {\r\n        uint256 landId;\r\n        address owner;\r\n        string  gpsCoordinates;\r\n        uint256 areaSqMeters;\r\n        string  documentHash;      // IPFS hash of title deed\r\n        bool    isRegistered;\r\n        bool    isForSale;\r\n        uint256 salePrice;\r\n        bool    hasLien;\r\n        bool    isDisputed;\r\n        uint256 registeredAt;\r\n    }\r\n\r\n    struct OwnershipRecord {\r\n        address previousOwner;\r\n        address newOwner;\r\n        uint256 price;\r\n        uint256 timestamp;\r\n    }\r\n\r\n    struct Dispute {\r\n        address filer;\r\n        string  evidenceHash;      // IPFS hash of evidence document\r\n        uint256 filedAt;\r\n        bool    resolved;\r\n        string  resolution;\r\n    }\r\n\r\n    // ════════════════════════════════════════════════════════\r\n    // STATE VARIABLES\r\n    // ════════════════════════════════════════════════════════\r\n\r\n    address public government;     // can register land + resolve disputes\r\n    address public bank;           // can add / remove liens\r\n\r\n    mapping(uint256 => LandParcel)        public lands;\r\n    mapping(uint256 => OwnershipRecord[]) public history;\r\n    mapping(uint256 => address)           public lienHolder;\r\n    mapping(uint256 => Dispute)           public disputes;\r\n\r\n    // ════════════════════════════════════════════════════════\r\n    // EVENTS  — frontend listens to these for real-time updates\r\n    // ════════════════════════════════════════════════════════\r\n\r\n    event LandRegistered      (uint256 landId, address owner);\r\n    event OwnershipTransferred(uint256 landId, address from, address to);\r\n    event ListedForSale       (uint256 landId, uint256 price);\r\n    event SaleCancelled       (uint256 landId);\r\n    event LandBought          (uint256 landId, address buyer, uint256 price);\r\n    event LienAdded           (uint256 landId, address bank);\r\n    event LienRemoved         (uint256 landId);\r\n    event DisputeFiled        (uint256 landId, address filer);\r\n    event DisputeResolved     (uint256 landId, address rightfulOwner);\r\n\r\n    // ════════════════════════════════════════════════════════\r\n    // MODIFIERS  — security gates on functions\r\n    // ════════════════════════════════════════════════════════\r\n\r\n    // Only the government wallet can call this function\r\n    modifier onlyGov() {\r\n        require(msg.sender == government, \"Only government can do this\");\r\n        _;\r\n    }\r\n\r\n    // Only the bank wallet can call this function\r\n    modifier onlyBank() {\r\n        require(msg.sender == bank, \"Only bank can do this\");\r\n        _;\r\n    }\r\n\r\n    // Only the current owner of that land can call this function\r\n    modifier onlyOwner(uint256 id) {\r\n        require(msg.sender == lands[id].owner, \"You are not the owner\");\r\n        _;\r\n    }\r\n\r\n    // Land must already be registered — prevents acting on non-existent land\r\n    modifier landExists(uint256 id) {\r\n        require(lands[id].isRegistered, \"Land not found\");\r\n        _;\r\n    }\r\n\r\n    // ════════════════════════════════════════════════════════\r\n    // CONSTRUCTOR  — runs once when contract is deployed\r\n    // ════════════════════════════════════════════════════════\r\n\r\n    constructor(address _gov, address _bank) {\r\n        // FROM YOUR FILE: validates both addresses on deploy\r\n        require(_gov  != address(0), \"Invalid government address\");\r\n        require(_bank != address(0), \"Invalid bank address\");\r\n        government = _gov;\r\n        bank       = _bank;\r\n    }\r\n\r\n    // ════════════════════════════════════════════════════════\r\n    // MODULE 1 — LAND REGISTRATION\r\n    // Only government can register a new land parcel\r\n    // ════════════════════════════════════════════════════════\r\n\r\n    function registerLand(\r\n        uint256       landId,\r\n        address       _owner,\r\n        string memory gpsCoordinates,\r\n        uint256       areaSqMeters,\r\n        string memory documentHash\r\n    ) public onlyGov {\r\n        require(!lands[landId].isRegistered,          \"Land already registered\");\r\n        require(_owner != address(0),                 \"Invalid owner address\");\r\n        require(areaSqMeters > 0,                     \"Area must be greater than 0\");\r\n        // FROM YOUR FILE: validates GPS is not empty\r\n        require(bytes(gpsCoordinates).length > 0,     \"GPS coordinates required\");\r\n\r\n        lands[landId] = LandParcel({\r\n            landId:         landId,\r\n            owner:          _owner,\r\n            gpsCoordinates: gpsCoordinates,\r\n            areaSqMeters:   areaSqMeters,\r\n            documentHash:   documentHash,\r\n            isRegistered:   true,\r\n            isForSale:      false,\r\n            salePrice:      0,\r\n            hasLien:        false,\r\n            isDisputed:     false,\r\n            registeredAt:   block.timestamp\r\n        });\r\n\r\n        // First history entry — from zero address = government registration\r\n        history[landId].push(OwnershipRecord({\r\n            previousOwner: address(0),\r\n            newOwner:      _owner,\r\n            price:         0,\r\n            timestamp:     block.timestamp\r\n        }));\r\n\r\n        emit LandRegistered(landId, _owner);\r\n    }\r\n\r\n    // Returns full details of a land parcel\r\n    function getLandDetails(uint256 landId)\r\n        public view landExists(landId)\r\n        returns (LandParcel memory)\r\n    {\r\n        return lands[landId];\r\n    }\r\n\r\n    // ════════════════════════════════════════════════════════\r\n    // MODULE 2 — BUY / SELL\r\n    // Smart contract handles escrow — no middleman needed\r\n    // ════════════════════════════════════════════════════════\r\n\r\n    // Owner lists their land for sale at a set price\r\n    function listForSale(uint256 landId, uint256 price)\r\n        public landExists(landId) onlyOwner(landId)\r\n    {\r\n        require(!lands[landId].isDisputed, \"Cannot list: land is disputed\");\r\n        require(!lands[landId].hasLien,    \"Cannot list: active mortgage exists\");\r\n        require(!lands[landId].isForSale,  \"Already listed for sale\");\r\n        require(price > 0,                 \"Price must be greater than 0\");\r\n\r\n        lands[landId].isForSale = true;\r\n        lands[landId].salePrice = price;\r\n\r\n        emit ListedForSale(landId, price);\r\n    }\r\n\r\n    // FROM YOUR FILE: Owner can cancel their listing at any time\r\n    function cancelListing(uint256 landId)\r\n        public landExists(landId) onlyOwner(landId)\r\n    {\r\n        require(lands[landId].isForSale, \"Land is not listed for sale\");\r\n\r\n        lands[landId].isForSale = false;\r\n        lands[landId].salePrice = 0;\r\n\r\n        emit SaleCancelled(landId);\r\n    }\r\n\r\n    // Buyer purchases land — instant atomic ownership transfer\r\n    // nonReentrant protects against reentrancy hack attacks\r\n    function buyLand(uint256 landId)\r\n        public payable nonReentrant landExists(landId)\r\n    {\r\n        LandParcel storage land = lands[landId];\r\n\r\n        require(land.isForSale,              \"Land is not for sale\");\r\n        require(msg.value >= land.salePrice, \"Payment is not enough\");\r\n        require(msg.sender != land.owner,    \"You already own this land\");\r\n        require(!land.isDisputed,            \"Land is under active dispute\");\r\n\r\n        address previousOwner = land.owner;\r\n\r\n        // Record history BEFORE changing owner\r\n        history[landId].push(OwnershipRecord({\r\n            previousOwner: previousOwner,\r\n            newOwner:      msg.sender,\r\n            price:         msg.value,\r\n            timestamp:     block.timestamp\r\n        }));\r\n\r\n        // Transfer ownership on-chain\r\n        land.owner     = msg.sender;\r\n        land.isForSale = false;\r\n        land.salePrice = 0;\r\n\r\n        // Release payment to seller — automatic, no bank needed\r\n        payable(previousOwner).transfer(msg.value);\r\n\r\n        emit LandBought(landId, msg.sender, msg.value);\r\n        emit OwnershipTransferred(landId, previousOwner, msg.sender);\r\n    }\r\n\r\n    // ════════════════════════════════════════════════════════\r\n    // MODULE 3 — OWNERSHIP HISTORY\r\n    // Every transfer ever recorded — immutable and tamper-proof\r\n    // ════════════════════════════════════════════════════════\r\n\r\n    function getLandHistory(uint256 landId)\r\n        public view landExists(landId)\r\n        returns (OwnershipRecord[] memory)\r\n    {\r\n        return history[landId];\r\n    }\r\n\r\n    // ════════════════════════════════════════════════════════\r\n    // MODULE 4 — VERIFICATION\r\n    // Banks and lawyers call this for instant title check\r\n    // ════════════════════════════════════════════════════════\r\n\r\n    function verifyLand(uint256 landId)\r\n        public view\r\n        returns (\r\n            bool    isRegistered,\r\n            bool    hasCleanTitle,\r\n            address currentOwner,\r\n            uint256 totalTransfers,\r\n            string memory status\r\n        )\r\n    {\r\n        // If land does not exist at all\r\n        if (!lands[landId].isRegistered) {\r\n            return (false, false, address(0), 0, \"NOT REGISTERED\");\r\n        }\r\n\r\n        LandParcel memory land = lands[landId];\r\n\r\n        // Clean title = no mortgage AND no dispute\r\n        bool clean = !land.hasLien && !land.isDisputed;\r\n\r\n        string memory statusMsg;\r\n        if      (land.isDisputed) statusMsg = \"DISPUTED - DO NOT TRANSACT\";\r\n        else if (land.hasLien)    statusMsg = \"ENCUMBERED - MORTGAGE ACTIVE\";\r\n        else if (land.isForSale)  statusMsg = \"REGISTERED - CLEAN TITLE - FOR SALE\";\r\n        else                      statusMsg = \"REGISTERED - CLEAN TITLE\";\r\n\r\n        return (\r\n            true,\r\n            clean,\r\n            land.owner,\r\n            history[landId].length,\r\n            statusMsg\r\n        );\r\n    }\r\n\r\n    // ════════════════════════════════════════════════════════\r\n    // MODULE 5 — MORTGAGE / LIEN\r\n    // Bank records and removes mortgages on-chain\r\n    // ════════════════════════════════════════════════════════\r\n\r\n    // Bank adds a mortgage — land is frozen from sale\r\n    function addLien(uint256 landId)\r\n        public onlyBank landExists(landId)\r\n    {\r\n        require(!lands[landId].hasLien,    \"Lien already active on this land\");\r\n        require(!lands[landId].isDisputed, \"Cannot add lien: land is disputed\");\r\n\r\n        lands[landId].hasLien   = true;\r\n        lands[landId].isForSale = false;   // Freeze immediately\r\n        lienHolder[landId]      = msg.sender;\r\n\r\n        emit LienAdded(landId, msg.sender);\r\n    }\r\n\r\n    // Bank removes mortgage when loan is fully repaid\r\n    function removeLien(uint256 landId)\r\n        public onlyBank landExists(landId)\r\n    {\r\n        require(lands[landId].hasLien,            \"No active lien on this land\");\r\n        require(lienHolder[landId] == msg.sender, \"Only the lien holder can remove it\");\r\n\r\n        lands[landId].hasLien = false;\r\n        delete lienHolder[landId];\r\n\r\n        emit LienRemoved(landId);\r\n    }\r\n\r\n    // ════════════════════════════════════════════════════════\r\n    // MODULE 6 — DISPUTE RESOLUTION\r\n    // Anyone files, government resolves — all on-chain\r\n    // ════════════════════════════════════════════════════════\r\n\r\n    // Anyone can file a dispute against a land parcel\r\n    function fileDispute(uint256 landId, string memory evidenceHash)\r\n        public landExists(landId)\r\n    {\r\n        require(!lands[landId].isDisputed, \"Dispute already active on this land\");\r\n\r\n        // Freeze land immediately — no transfers during dispute\r\n        lands[landId].isDisputed = true;\r\n        lands[landId].isForSale  = false;\r\n\r\n        disputes[landId] = Dispute({\r\n            filer:        msg.sender,\r\n            evidenceHash: evidenceHash,\r\n            filedAt:      block.timestamp,\r\n            resolved:     false,\r\n            resolution:   \"\"\r\n        });\r\n\r\n        emit DisputeFiled(landId, msg.sender);\r\n    }\r\n\r\n    // Only government can resolve — final decision written on-chain forever\r\n    function resolveDispute(\r\n        uint256       landId,\r\n        address       rightfulOwner,\r\n        string memory resolutionNotes\r\n    ) public onlyGov landExists(landId) {\r\n        require(lands[landId].isDisputed,    \"No active dispute on this land\");\r\n        require(rightfulOwner != address(0), \"Invalid rightful owner address\");\r\n\r\n        // If owner needs to change, transfer ownership\r\n        if (rightfulOwner != lands[landId].owner) {\r\n            address previousOwner = lands[landId].owner;\r\n\r\n            history[landId].push(OwnershipRecord({\r\n                previousOwner: previousOwner,\r\n                newOwner:      rightfulOwner,\r\n                price:         0,\r\n                timestamp:     block.timestamp\r\n            }));\r\n\r\n            lands[landId].owner = rightfulOwner;\r\n            emit OwnershipTransferred(landId, previousOwner, rightfulOwner);\r\n        }\r\n\r\n        // Close the dispute permanently\r\n        lands[landId].isDisputed    = false;\r\n        disputes[landId].resolved   = true;\r\n        disputes[landId].resolution = resolutionNotes;\r\n\r\n        emit DisputeResolved(landId, rightfulOwner);\r\n    }\r\n\r\n    // Get full dispute record for any land\r\n    function getDispute(uint256 landId)\r\n        public view landExists(landId)\r\n        returns (Dispute memory)\r\n    {\r\n        return disputes[landId];\r\n    }\r\n\r\n}\r\n",
  "sourcePath": "C:\\Users\\DELL\\OneDrive\\Desktop\\land-registry-web3\\contracts\\LandRegistry.sol",
  "compiler": {
    "name": "solc",
    "version": "0.8.20+commit.a1b79de6.Emscripten.clang"
  },
  "schemaVersion": "3.4.16",
  "updatedAt": "2026-04-12T14:35:59.554Z",
  "devdoc": {
    "kind": "dev",
    "methods": {},
    "version": 1
  },
  "userdoc": {
    "kind": "user",
    "methods": {},
    "version": 1
  }
}